:020000040000FA
:020000000528D1
:040002000034003492
:0200080091283D
:06000A00091186018801C6
:1000100083160317880189018816081783160313AE
:100020000330860085018801071087100711091425
:1000300089140911013096009F1383120313543061
:100040009F00FE30850086088B15AC0AAB01B430EA
:1000500090007130A0007130A1003F30A2008616E0
:100060008B1732280130A30020088800230887005E
:1000700088200310A30D210888002308870088200A
:100080000310A30D2208880023088700882003108E
:100090002B182C1C32284D20322858309F001F145A
:1000A0009F149F1851281E08F200333C03185B2848
:1000B0006628000008008316013096008312FE3087
:1000C00085007930A000A100A200592883160330D2
:1000D000960083125430A0003F30A100A20171208D
:1000E000592854309F001F149F149F1875281E080C
:1000F000F200593C0318080010140C1083160C145D
:1001000083120B170915DC308E000B308F000800AE
:100110000B30A600C830A500A50B8C28A60B8A289A
:100120000800F100030EF0000B189B280B1936296C
:100130000C183C294329BF20061CA128861CA12895
:100140004329A6200030850086084329A901FE30F6
:10015000AA002A088500061CB828A90A2A088500D2
:10016000861CB828A90A0314AA0D2A1DA628A928A6
:100170002908BA288207C428E6282F292F29FF300A
:10018000A400A40BC12808002B1CC728D62883165E
:10019000031303309600831203135430A0003F3042
:1001A000A100A20186120616AB0A0800AB0171304D
:1001B000A0007130A1003F30A200861606128316FF
:1001C00003130130960083120313080054309F007C
:1001D0001F149F149F18EA289E1BFD281E1F192913
:1001E0001E08F200523C031812297208613C0318E1
:1001F0000B297208703C031804293F30A0005B30C3
:10020000A1007630A20020293F30A0006630A10076
:100210007630A20020293F30A0007D30A10076304A
:10022000A20020293F30A0007F30A1007630A2003C
:1002300020296F30A0006F30A1007630A200202965
:10024000AC01C830AD008316011481140115811171
:100250000112811283123D3081008B160800880143
:100260000915861C3129091108004329AD0B4329C2
:10027000AC0A8B120B114329091183160C1083123F
:100280000B130C104329700E8300710EF10E0B102E
:060290000C130B11090024
:02400E00F72F8A
:02401000FF3F70
:00000001FF
